{
  "_format": "hh-sol-artifact-1",
  "contractName": "ChaosPortal",
  "sourceName": "contracts/ChaosPortal.sol",
  "abi": [
    {
      "inputs": [],
      "stateMutability": "payable",
      "type": "constructor"
    },
    {
      "anonymous": false,
      "inputs": [
        {
          "indexed": true,
          "internalType": "address",
          "name": "from",
          "type": "address"
        },
        {
          "indexed": false,
          "internalType": "uint256",
          "name": "timestamp",
          "type": "uint256"
        },
        {
          "indexed": false,
          "internalType": "string",
          "name": "move",
          "type": "string"
        },
        {
          "indexed": false,
          "internalType": "string",
          "name": "newFen",
          "type": "string"
        }
      ],
      "name": "NewMove",
      "type": "event"
    },
    {
      "inputs": [],
      "name": "getAllGames",
      "outputs": [
        {
          "components": [
            {
              "internalType": "string",
              "name": "currBoard",
              "type": "string"
            },
            {
              "internalType": "uint256",
              "name": "timestamp",
              "type": "uint256"
            },
            {
              "internalType": "uint256",
              "name": "numMoves",
              "type": "uint256"
            },
            {
              "components": [
                {
                  "internalType": "address",
                  "name": "player",
                  "type": "address"
                },
                {
                  "internalType": "string",
                  "name": "move",
                  "type": "string"
                },
                {
                  "internalType": "string",
                  "name": "boardPos",
                  "type": "string"
                },
                {
                  "internalType": "uint256",
                  "name": "timestamp",
                  "type": "uint256"
                }
              ],
              "internalType": "struct ChaosPortal.Move[]",
              "name": "moves",
              "type": "tuple[]"
            }
          ],
          "internalType": "struct ChaosPortal.ReturnableGame[]",
          "name": "",
          "type": "tuple[]"
        }
      ],
      "stateMutability": "view",
      "type": "function"
    },
    {
      "inputs": [],
      "name": "getTotalGames",
      "outputs": [
        {
          "internalType": "uint256",
          "name": "",
          "type": "uint256"
        }
      ],
      "stateMutability": "view",
      "type": "function"
    },
    {
      "inputs": [],
      "name": "getTotalMoves",
      "outputs": [
        {
          "internalType": "uint256",
          "name": "",
          "type": "uint256"
        }
      ],
      "stateMutability": "view",
      "type": "function"
    },
    {
      "inputs": [
        {
          "internalType": "string",
          "name": "_move",
          "type": "string"
        },
        {
          "internalType": "string",
          "name": "_fen",
          "type": "string"
        },
        {
          "internalType": "string",
          "name": "_prevFen",
          "type": "string"
        },
        {
          "internalType": "bool",
          "name": "_over",
          "type": "bool"
        }
      ],
      "name": "move",
      "outputs": [],
      "stateMutability": "nonpayable",
      "type": "function"
    }
  ],
  "bytecode": "0x608060405233600360006101000a81548173ffffffffffffffffffffffffffffffffffffffff021916908373ffffffffffffffffffffffffffffffffffffffff160217905550620000556200005b60201b60201c565b62000265565b6000806000600260008154809291906200007590620001b9565b919050558152602001908152602001600020905060405180606001604052806038815260200162001e0960389139816000019080519060200190620000bc929190620000c9565b5042816001018190555050565b828054620000d79062000183565b90600052602060002090601f016020900481019282620000fb576000855562000147565b82601f106200011657805160ff191683800117855562000147565b8280016001018555821562000147579182015b828111156200014657825182559160200191906001019062000129565b5b5090506200015691906200015a565b5090565b5b80821115620001755760008160009055506001016200015b565b5090565b6000819050919050565b600060028204905060018216806200019c57607f821691505b60208210811415620001b357620001b262000236565b5b50919050565b6000620001c68262000179565b91507fffffffffffffffffffffffffffffffffffffffffffffffffffffffffffffffff821415620001fc57620001fb62000207565b5b600182019050919050565b7f4e487b7100000000000000000000000000000000000000000000000000000000600052601160045260246000fd5b7f4e487b7100000000000000000000000000000000000000000000000000000000600052602260045260246000fd5b611b9480620002756000396000f3fe608060405234801561001057600080fd5b506004361061004c5760003560e01c8063209411c3146100515780635bd4349b1461006d578063db1c45f91461008b578063e25443a7146100a9575b600080fd5b61006b60048036038101906100669190611084565b6100c7565b005b6100756107d0565b6040516100829190611649565b60405180910390f35b6100936107da565b6040516100a0919061151d565b60405180910390f35b6100b1610d24565b6040516100be9190611649565b60405180910390f35b600080600060016002546100db9190611814565b8152602001908152602001600020905060006001826002015403905081600301600082815260200190815260200160002060000160009054906101000a900473ffffffffffffffffffffffffffffffffffffffff1673ffffffffffffffffffffffffffffffffffffffff163373ffffffffffffffffffffffffffffffffffffffff161415806101b557504261012c600460003373ffffffffffffffffffffffffffffffffffffffff1673ffffffffffffffffffffffffffffffffffffffff168152602001908152602001600020546101b391906117be565b105b8061020d5750600360009054906101000a900473ffffffffffffffffffffffffffffffffffffffff1673ffffffffffffffffffffffffffffffffffffffff163373ffffffffffffffffffffffffffffffffffffffff16145b61024c576040517f08c379a000000000000000000000000000000000000000000000000000000000815260040161024390611609565b60405180910390fd5b8160000160405161025d91906114f1565b60405180910390208480519060200120146102ad576040517f08c379a00000000000000000000000000000000000000000000000000000000081526004016102a4906115e9565b60405180910390fd5b42600460003373ffffffffffffffffffffffffffffffffffffffff1673ffffffffffffffffffffffffffffffffffffffff1681526020019081526020016000208190555084826000019080519060200190610309929190610efe565b5060405180608001604052803373ffffffffffffffffffffffffffffffffffffffff1681526020018781526020018681526020014281525082600301600084600201600081548092919061035c90611935565b91905055815260200190815260200160002060008201518160000160006101000a81548173ffffffffffffffffffffffffffffffffffffffff021916908373ffffffffffffffffffffffffffffffffffffffff16021790555060208201518160010190805190602001906103d1929190610efe565b5060408201518160020190805190602001906103ee929190610efe565b5060608201518160030155905050600180600082825461040e91906117be565b925050819055503373ffffffffffffffffffffffffffffffffffffffff167f963cdc18f3a42c8746635a3c08d5c09272528fe7f879b3a781f924d21d284b4642888860405161045f93929190611664565b60405180910390a2821561063b57610475610d2e565b600086905060007f2300000000000000000000000000000000000000000000000000000000000000905081600183516104ae9190611814565b815181106104e5577f4e487b7100000000000000000000000000000000000000000000000000000000600052603260045260246000fd5b602001015160f81c60f81b7effffffffffffffffffffffffffffffffffffffffffffffffffffffffffffff1916817effffffffffffffffffffffffffffffffffffffffffffffffffffffffffffff191614156105855747655af3107a40001115610584576040517f08c379a000000000000000000000000000000000000000000000000000000000815260040161057b906115c9565b60405180910390fd5b5b60003373ffffffffffffffffffffffffffffffffffffffff16655af3107a40006040516105b190611508565b60006040518083038185875af1925050503d80600081146105ee576040519150601f19603f3d011682016040523d82523d6000602084013e6105f3565b606091505b5050905080610637576040517f08c379a000000000000000000000000000000000000000000000000000000000815260040161062e90611629565b60405180910390fd5b5050505b6107416040518060400160405280600681526020017f626f6172643a0000000000000000000000000000000000000000000000000000815250836000018054610683906118d2565b80601f01602080910402602001604051908101604052809291908181526020018280546106af906118d2565b80156106fc5780601f106106d1576101008083540402835291602001916106fc565b820191906000526020600020905b8154815290600101906020018083116106df57829003601f168201915b50505050506040518060400160405280600681526020017f6d6f7665733a00000000000000000000000000000000000000000000000000008152508560020154610d97565b6107c86040518060400160405280600781526020017f706c617965723a00000000000000000000000000000000000000000000000000815250836003016000600186600201546107919190611814565b815260200190815260200160002060000160009054906101000a900473ffffffffffffffffffffffffffffffffffffffff16610e39565b505050505050565b6000600254905090565b6060600060025467ffffffffffffffff811115610820577f4e487b7100000000000000000000000000000000000000000000000000000000600052604160045260246000fd5b60405190808252806020026020018201604052801561085957816020015b610846610f84565b81526020019060019003908161083e5790505b509050600080600090505b600254811015610d1b576000808281526020019081526020016000209150816000018054610891906118d2565b80601f01602080910402602001604051908101604052809291908181526020018280546108bd906118d2565b801561090a5780601f106108df5761010080835404028352916020019161090a565b820191906000526020600020905b8154815290600101906020018083116108ed57829003601f168201915b5050505050838281518110610948577f4e487b7100000000000000000000000000000000000000000000000000000000600052603260045260246000fd5b6020026020010151600001819052508160010154838281518110610995577f4e487b7100000000000000000000000000000000000000000000000000000000600052603260045260246000fd5b6020026020010151602001818152505081600201548382815181106109e3577f4e487b7100000000000000000000000000000000000000000000000000000000600052603260045260246000fd5b60200260200101516040018181525050816002015467ffffffffffffffff811115610a37577f4e487b7100000000000000000000000000000000000000000000000000000000600052604160045260246000fd5b604051908082528060200260200182016040528015610a7057816020015b610a5d610fac565b815260200190600190039081610a555790505b50838281518110610aaa577f4e487b7100000000000000000000000000000000000000000000000000000000600052603260045260246000fd5b60200260200101516060018190525060005b8260020154811015610d07578260030160008281526020019081526020016000206040518060800160405290816000820160009054906101000a900473ffffffffffffffffffffffffffffffffffffffff1673ffffffffffffffffffffffffffffffffffffffff1673ffffffffffffffffffffffffffffffffffffffff168152602001600182018054610b4e906118d2565b80601f0160208091040260200160405190810160405280929190818152602001828054610b7a906118d2565b8015610bc75780601f10610b9c57610100808354040283529160200191610bc7565b820191906000526020600020905b815481529060010190602001808311610baa57829003601f168201915b50505050508152602001600282018054610be0906118d2565b80601f0160208091040260200160405190810160405280929190818152602001828054610c0c906118d2565b8015610c595780601f10610c2e57610100808354040283529160200191610c59565b820191906000526020600020905b815481529060010190602001808311610c3c57829003601f168201915b50505050508152602001600382015481525050848381518110610ca5577f4e487b7100000000000000000000000000000000000000000000000000000000600052603260045260246000fd5b6020026020010151606001518281518110610ce9577f4e487b7100000000000000000000000000000000000000000000000000000000600052603260045260246000fd5b60200260200101819052508080610cff90611935565b915050610abc565b508080610d1390611935565b915050610864565b50819250505090565b6000600154905090565b600080600060026000815480929190610d4690611935565b9190505581526020019081526020016000209050604051806060016040528060388152602001611b2760389139816000019080519060200190610d8a929190610efe565b5042816001018190555050565b610e3384848484604051602401610db1949392919061156f565b6040516020818303038152906040527f9fd009f5000000000000000000000000000000000000000000000000000000007bffffffffffffffffffffffffffffffffffffffffffffffffffffffff19166020820180517bffffffffffffffffffffffffffffffffffffffffffffffffffffffff8381831617835250505050610ed5565b50505050565b610ed18282604051602401610e4f92919061153f565b6040516020818303038152906040527f319af333000000000000000000000000000000000000000000000000000000007bffffffffffffffffffffffffffffffffffffffffffffffffffffffff19166020820180517bffffffffffffffffffffffffffffffffffffffffffffffffffffffff8381831617835250505050610ed5565b5050565b60008151905060006a636f6e736f6c652e6c6f679050602083016000808483855afa5050505050565b828054610f0a906118d2565b90600052602060002090601f016020900481019282610f2c5760008555610f73565b82601f10610f4557805160ff1916838001178555610f73565b82800160010185558215610f73579182015b82811115610f72578251825591602001919060010190610f57565b5b509050610f809190610fea565b5090565b6040518060800160405280606081526020016000815260200160008152602001606081525090565b6040518060800160405280600073ffffffffffffffffffffffffffffffffffffffff1681526020016060815260200160608152602001600081525090565b5b80821115611003576000816000905550600101610feb565b5090565b600061101a611015846116ce565b6116a9565b90508281526020810184848401111561103257600080fd5b61103d848285611890565b509392505050565b60008135905061105481611b0f565b92915050565b600082601f83011261106b57600080fd5b813561107b848260208601611007565b91505092915050565b6000806000806080858703121561109a57600080fd5b600085013567ffffffffffffffff8111156110b457600080fd5b6110c08782880161105a565b945050602085013567ffffffffffffffff8111156110dd57600080fd5b6110e98782880161105a565b935050604085013567ffffffffffffffff81111561110657600080fd5b6111128782880161105a565b925050606061112387828801611045565b91505092959194509250565b600061113b83836113ff565b905092915050565b600061114f8383611469565b905092915050565b61116081611848565b82525050565b61116f81611848565b82525050565b600061118082611734565b61118a818561176f565b93508360208202850161119c856116ff565b8060005b858110156111d857848403895281516111b9858261112f565b94506111c483611755565b925060208a019950506001810190506111a0565b50829750879550505050505092915050565b60006111f58261173f565b6111ff8185611780565b9350836020820285016112118561170f565b8060005b8581101561124d578484038952815161122e8582611143565b945061123983611762565b925060208a01995050600181019050611215565b50829750879550505050505092915050565b6000815461126c816118d2565b6112768186611791565b9450600182166000811461129157600181146112a2576112d5565b60ff198316865281860193506112d5565b6112ab8561171f565b60005b838110156112cd578154818901526001820191506020810190506112ae565b838801955050505b50505092915050565b60006112e98261174a565b6112f3818561179c565b935061130381856020860161189f565b61130c81611a0b565b840191505092915050565b60006113228261174a565b61132c81856117ad565b935061133c81856020860161189f565b61134581611a0b565b840191505092915050565b600061135d6015836117ad565b915061136882611a1c565b602082019050919050565b6000611380602c836117ad565b915061138b82611a45565b604082019050919050565b60006113a3600083611791565b91506113ae82611a94565b600082019050919050565b60006113c66040836117ad565b91506113d182611a97565b604082019050919050565b60006113e96020836117ad565b91506113f482611ae6565b602082019050919050565b60006080830160008301516114176000860182611157565b506020830151848203602086015261142f82826112de565b9150506040830151848203604086015261144982826112de565b915050606083015161145e60608601826114d3565b508091505092915050565b6000608083016000830151848203600086015261148682826112de565b915050602083015161149b60208601826114d3565b5060408301516114ae60408601826114d3565b50606083015184820360608601526114c68282611175565b9150508091505092915050565b6114dc81611886565b82525050565b6114eb81611886565b82525050565b60006114fd828461125f565b915081905092915050565b600061151382611396565b9150819050919050565b6000602082019050818103600083015261153781846111ea565b905092915050565b600060408201905081810360008301526115598185611317565b90506115686020830184611166565b9392505050565b600060808201905081810360008301526115898187611317565b9050818103602083015261159d8186611317565b905081810360408301526115b18185611317565b90506115c060608301846114e2565b95945050505050565b600060208201905081810360008301526115e281611350565b9050919050565b6000602082019050818103600083015261160281611373565b9050919050565b60006020820190508181036000830152611622816113b9565b9050919050565b60006020820190508181036000830152611642816113dc565b9050919050565b600060208201905061165e60008301846114e2565b92915050565b600060608201905061167960008301866114e2565b818103602083015261168b8185611317565b9050818103604083015261169f8184611317565b9050949350505050565b60006116b36116c4565b90506116bf8282611904565b919050565b6000604051905090565b600067ffffffffffffffff8211156116e9576116e86119dc565b5b6116f282611a0b565b9050602081019050919050565b6000819050602082019050919050565b6000819050602082019050919050565b60008190508160005260206000209050919050565b600081519050919050565b600081519050919050565b600081519050919050565b6000602082019050919050565b6000602082019050919050565b600082825260208201905092915050565b600082825260208201905092915050565b600081905092915050565b600082825260208201905092915050565b600082825260208201905092915050565b60006117c982611886565b91506117d483611886565b9250827fffffffffffffffffffffffffffffffffffffffffffffffffffffffffffffffff038211156118095761180861197e565b5b828201905092915050565b600061181f82611886565b915061182a83611886565b92508282101561183d5761183c61197e565b5b828203905092915050565b600061185382611866565b9050919050565b60008115159050919050565b600073ffffffffffffffffffffffffffffffffffffffff82169050919050565b6000819050919050565b82818337600083830152505050565b60005b838110156118bd5780820151818401526020810190506118a2565b838111156118cc576000848401525b50505050565b600060028204905060018216806118ea57607f821691505b602082108114156118fe576118fd6119ad565b5b50919050565b61190d82611a0b565b810181811067ffffffffffffffff8211171561192c5761192b6119dc565b5b80604052505050565b600061194082611886565b91507fffffffffffffffffffffffffffffffffffffffffffffffffffffffffffffffff8214156119735761197261197e565b5b600182019050919050565b7f4e487b7100000000000000000000000000000000000000000000000000000000600052601160045260246000fd5b7f4e487b7100000000000000000000000000000000000000000000000000000000600052602260045260246000fd5b7f4e487b7100000000000000000000000000000000000000000000000000000000600052604160045260246000fd5b6000601f19601f8301169050919050565b7f436f6e7472616374206f7574206f662066756e64730000000000000000000000600082015250565b7f50726576696f757320626f61726420646f6573206e6f74206d6174636820637560008201527f7272656e742073746174652e0000000000000000000000000000000000000000602082015250565b50565b7f506c6561736520646f6e277420706c617920616761696e737420796f7572736560008201527f6c662e20496620796f75206d7573742c20776169742035206d696e757465732e602082015250565b7f4661696c656420746f2077697468647261772066726f6d20636f6e7472616374600082015250565b611b188161185a565b8114611b2357600080fd5b5056fe726e62716b626e722f70707070707070702f382f382f382f382f50505050505050502f524e42514b424e522077204b516b71202d20302031a2646970667358221220a238728639bc431d00108d73e54909f227249486b817a2581394e098acc1f14c64736f6c63430008040033726e62716b626e722f70707070707070702f382f382f382f382f50505050505050502f524e42514b424e522077204b516b71202d20302031",
  "linkReferences": {},
  "deployedLinkReferences": {}
}